{
  "_format": "hh-sol-artifact-1",
  "contractName": "TokenSale",
  "sourceName": "contracts/podSale.sol",
  "abi": [
    {
      "inputs": [
        {
          "internalType": "contract Token",
          "name": "_tokenContract",
          "type": "address"
        },
        {
          "internalType": "uint256",
          "name": "_tokenPrice",
          "type": "uint256"
        }
      ],
      "stateMutability": "nonpayable",
      "type": "constructor"
    },
    {
      "anonymous": false,
      "inputs": [
        {
          "indexed": false,
          "internalType": "address",
          "name": "buyer",
          "type": "address"
        },
        {
          "indexed": false,
          "internalType": "uint256",
          "name": "amount",
          "type": "uint256"
        }
      ],
      "name": "sell",
      "type": "event"
    },
    {
      "inputs": [
        {
          "internalType": "address",
          "name": "_buyer",
          "type": "address"
        },
        {
          "internalType": "uint256",
          "name": "_amount",
          "type": "uint256"
        }
      ],
      "name": "buytoken",
      "outputs": [
        {
          "internalType": "bool",
          "name": "",
          "type": "bool"
        }
      ],
      "stateMutability": "payable",
      "type": "function"
    },
    {
      "inputs": [],
      "name": "endSale",
      "outputs": [],
      "stateMutability": "payable",
      "type": "function"
    },
    {
      "inputs": [],
      "name": "getContractTokenBal",
      "outputs": [
        {
          "internalType": "uint256",
          "name": "",
          "type": "uint256"
        }
      ],
      "stateMutability": "view",
      "type": "function"
    },
    {
      "inputs": [
        {
          "internalType": "uint256",
          "name": "x",
          "type": "uint256"
        },
        {
          "internalType": "uint256",
          "name": "y",
          "type": "uint256"
        }
      ],
      "name": "multiply",
      "outputs": [
        {
          "internalType": "uint256",
          "name": "",
          "type": "uint256"
        }
      ],
      "stateMutability": "pure",
      "type": "function"
    },
    {
      "inputs": [],
      "name": "tokenContract",
      "outputs": [
        {
          "internalType": "contract Token",
          "name": "",
          "type": "address"
        }
      ],
      "stateMutability": "view",
      "type": "function"
    },
    {
      "inputs": [],
      "name": "tokenPrice",
      "outputs": [
        {
          "internalType": "uint256",
          "name": "",
          "type": "uint256"
        }
      ],
      "stateMutability": "view",
      "type": "function"
    },
    {
      "inputs": [],
      "name": "tokenSold",
      "outputs": [
        {
          "internalType": "uint256",
          "name": "",
          "type": "uint256"
        }
      ],
      "stateMutability": "view",
      "type": "function"
    }
  ],
  "bytecode": "0x60806040523480156200001157600080fd5b5060405162000f0f38038062000f0f833981810160405281019062000037919062000180565b81600160006101000a81548173ffffffffffffffffffffffffffffffffffffffff021916908373ffffffffffffffffffffffffffffffffffffffff16021790555080600281905550336000806101000a81548173ffffffffffffffffffffffffffffffffffffffff021916908373ffffffffffffffffffffffffffffffffffffffff1602179055505050620001c7565b600080fd5b600073ffffffffffffffffffffffffffffffffffffffff82169050919050565b6000620000f982620000cc565b9050919050565b60006200010d82620000ec565b9050919050565b6200011f8162000100565b81146200012b57600080fd5b50565b6000815190506200013f8162000114565b92915050565b6000819050919050565b6200015a8162000145565b81146200016657600080fd5b50565b6000815190506200017a816200014f565b92915050565b600080604083850312156200019a5762000199620000c7565b5b6000620001aa858286016200012e565b9250506020620001bd8582860162000169565b9150509250929050565b610d3880620001d76000396000f3fe6080604052600436106100705760003560e01c80634a768eaa1161004e5780634a768eaa146100e7578063519ee19e1461011757806355a373d6146101425780637ff9b5961461016d57610070565b8063102253c814610075578063165c4a16146100a0578063380d831b146100dd575b600080fd5b34801561008157600080fd5b5061008a610198565b604051610097919061076e565b60405180910390f35b3480156100ac57600080fd5b506100c760048036038101906100c291906107ba565b61023b565b6040516100d4919061076e565b60405180910390f35b6100e5610296565b005b61010160048036038101906100fc9190610858565b6104bb565b60405161010e91906108b3565b60405180910390f35b34801561012357600080fd5b5061012c610723565b604051610139919061076e565b60405180910390f35b34801561014e57600080fd5b50610157610729565b604051610164919061092d565b60405180910390f35b34801561017957600080fd5b5061018261074f565b60405161018f919061076e565b60405180910390f35b6000600160009054906101000a900473ffffffffffffffffffffffffffffffffffffffff1673ffffffffffffffffffffffffffffffffffffffff166370a08231306040518263ffffffff1660e01b81526004016101f59190610957565b602060405180830381865afa158015610212573d6000803e3d6000fd5b505050506040513d601f19601f820116820180604052508101906102369190610987565b905090565b600080600083148061026557508383848661025691906109e3565b6102609190610a54565b915081145b61026e57600080fd5b670de0b6b3a7640000838261028391906109e3565b61028d9190610a54565b91505092915050565b60008054906101000a900473ffffffffffffffffffffffffffffffffffffffff1673ffffffffffffffffffffffffffffffffffffffff163373ffffffffffffffffffffffffffffffffffffffff16146102ee57600080fd5b600160009054906101000a900473ffffffffffffffffffffffffffffffffffffffff1673ffffffffffffffffffffffffffffffffffffffff1663a9059cbb60008054906101000a900473ffffffffffffffffffffffffffffffffffffffff16600160009054906101000a900473ffffffffffffffffffffffffffffffffffffffff1673ffffffffffffffffffffffffffffffffffffffff166370a08231306040518263ffffffff1660e01b81526004016103a89190610957565b602060405180830381865afa1580156103c5573d6000803e3d6000fd5b505050506040513d601f19601f820116820180604052508101906103e99190610987565b6040518363ffffffff1660e01b8152600401610406929190610a85565b6020604051808303816000875af1158015610425573d6000803e3d6000fd5b505050506040513d601f19601f820116820180604052508101906104499190610ada565b61045257600080fd5b60008054906101000a900473ffffffffffffffffffffffffffffffffffffffff1673ffffffffffffffffffffffffffffffffffffffff166108fc479081150290604051600060405180830381858888f193505050501580156104b8573d6000803e3d6000fd5b50565b60006104c98260025461023b565b341461050a576040517f08c379a000000000000000000000000000000000000000000000000000000000815260040161050190610b8a565b60405180910390fd5b81600160009054906101000a900473ffffffffffffffffffffffffffffffffffffffff1673ffffffffffffffffffffffffffffffffffffffff166370a08231306040518263ffffffff1660e01b81526004016105669190610957565b602060405180830381865afa158015610583573d6000803e3d6000fd5b505050506040513d601f19601f820116820180604052508101906105a79190610987565b10156105e8576040517f08c379a00000000000000000000000000000000000000000000000000000000081526004016105df90610c1c565b60405180910390fd5b600160009054906101000a900473ffffffffffffffffffffffffffffffffffffffff1673ffffffffffffffffffffffffffffffffffffffff1663a9059cbb84846040518363ffffffff1660e01b8152600401610645929190610a85565b6020604051808303816000875af1158015610664573d6000803e3d6000fd5b505050506040513d601f19601f820116820180604052508101906106889190610ada565b6106c7576040517f08c379a00000000000000000000000000000000000000000000000000000000081526004016106be90610cae565b60405180910390fd5b81600360008282546106d99190610cce565b925050819055507f6c197ff5fb3c0793d2ced16096dc40420539c99ae6f83b0c62bea63dab16ac6b8383604051610711929190610a85565b60405180910390a16001905092915050565b60035481565b600160009054906101000a900473ffffffffffffffffffffffffffffffffffffffff1681565b60025481565b6000819050919050565b61076881610755565b82525050565b6000602082019050610783600083018461075f565b92915050565b600080fd5b61079781610755565b81146107a257600080fd5b50565b6000813590506107b48161078e565b92915050565b600080604083850312156107d1576107d0610789565b5b60006107df858286016107a5565b92505060206107f0858286016107a5565b9150509250929050565b600073ffffffffffffffffffffffffffffffffffffffff82169050919050565b6000610825826107fa565b9050919050565b6108358161081a565b811461084057600080fd5b50565b6000813590506108528161082c565b92915050565b6000806040838503121561086f5761086e610789565b5b600061087d85828601610843565b925050602061088e858286016107a5565b9150509250929050565b60008115159050919050565b6108ad81610898565b82525050565b60006020820190506108c860008301846108a4565b92915050565b6000819050919050565b60006108f36108ee6108e9846107fa565b6108ce565b6107fa565b9050919050565b6000610905826108d8565b9050919050565b6000610917826108fa565b9050919050565b6109278161090c565b82525050565b6000602082019050610942600083018461091e565b92915050565b6109518161081a565b82525050565b600060208201905061096c6000830184610948565b92915050565b6000815190506109818161078e565b92915050565b60006020828403121561099d5761099c610789565b5b60006109ab84828501610972565b91505092915050565b7f4e487b7100000000000000000000000000000000000000000000000000000000600052601160045260246000fd5b60006109ee82610755565b91506109f983610755565b9250828202610a0781610755565b91508282048414831517610a1e57610a1d6109b4565b5b5092915050565b7f4e487b7100000000000000000000000000000000000000000000000000000000600052601260045260246000fd5b6000610a5f82610755565b9150610a6a83610755565b925082610a7a57610a79610a25565b5b828204905092915050565b6000604082019050610a9a6000830185610948565b610aa7602083018461075f565b9392505050565b610ab781610898565b8114610ac257600080fd5b50565b600081519050610ad481610aae565b92915050565b600060208284031215610af057610aef610789565b5b6000610afe84828501610ac5565b91505092915050565b600082825260208201905092915050565b7f696e636f727265637420746f6b656e416d6f756e74206f72204574686572207360008201527f656e640000000000000000000000000000000000000000000000000000000000602082015250565b6000610b74602383610b07565b9150610b7f82610b18565b604082019050919050565b60006020820190508181036000830152610ba381610b67565b9050919050565b7f696e73756666696563656e7420616d6f756e7420696e2074686520436f6e747260008201527f6163742041646472657373000000000000000000000000000000000000000000602082015250565b6000610c06602b83610b07565b9150610c1182610baa565b604082019050919050565b60006020820190508181036000830152610c3581610bf9565b9050919050565b7f736f6d657468696e672077726f6e67207768696c65207472616e73666572696e60008201527f6720746f6b656e73000000000000000000000000000000000000000000000000602082015250565b6000610c98602883610b07565b9150610ca382610c3c565b604082019050919050565b60006020820190508181036000830152610cc781610c8b565b9050919050565b6000610cd982610755565b9150610ce483610755565b9250828201905080821115610cfc57610cfb6109b4565b5b9291505056fea264697066735822122058262d61e0cf4f35bdc3158fb95038c13dc126e5f1f229652d525b55d5934eda64736f6c63430008120033",
  "linkReferences": {},
  "deployedLinkReferences": {}
}