{
  "_format": "hh-sol-artifact-1",
  "contractName": "Token",
  "sourceName": "contracts/pods.sol",
  "abi": [
    {
      "inputs": [
        {
          "internalType": "uint256",
          "name": "_total",
          "type": "uint256"
        }
      ],
      "stateMutability": "nonpayable",
      "type": "constructor"
    },
    {
      "anonymous": false,
      "inputs": [
        {
          "indexed": true,
          "internalType": "address",
          "name": "_owner",
          "type": "address"
        },
        {
          "indexed": true,
          "internalType": "address",
          "name": "_spender",
          "type": "address"
        },
        {
          "indexed": false,
          "internalType": "uint256",
          "name": "_value",
          "type": "uint256"
        }
      ],
      "name": "Approval",
      "type": "event"
    },
    {
      "anonymous": false,
      "inputs": [
        {
          "indexed": true,
          "internalType": "address",
          "name": "_from",
          "type": "address"
        },
        {
          "indexed": true,
          "internalType": "address",
          "name": "_to",
          "type": "address"
        },
        {
          "indexed": false,
          "internalType": "uint256",
          "name": "_value",
          "type": "uint256"
        }
      ],
      "name": "Transfer",
      "type": "event"
    },
    {
      "inputs": [
        {
          "internalType": "uint256",
          "name": "",
          "type": "uint256"
        }
      ],
      "name": "History",
      "outputs": [
        {
          "internalType": "uint256",
          "name": "userId",
          "type": "uint256"
        },
        {
          "internalType": "address",
          "name": "From",
          "type": "address"
        },
        {
          "internalType": "address",
          "name": "TO",
          "type": "address"
        },
        {
          "internalType": "uint256",
          "name": "Ammount",
          "type": "uint256"
        },
        {
          "internalType": "bool",
          "name": "TokenHodl",
          "type": "bool"
        }
      ],
      "stateMutability": "view",
      "type": "function"
    },
    {
      "inputs": [],
      "name": "OwnerOfToken",
      "outputs": [
        {
          "internalType": "address",
          "name": "",
          "type": "address"
        }
      ],
      "stateMutability": "view",
      "type": "function"
    },
    {
      "inputs": [
        {
          "internalType": "address",
          "name": "",
          "type": "address"
        },
        {
          "internalType": "address",
          "name": "",
          "type": "address"
        }
      ],
      "name": "allowance",
      "outputs": [
        {
          "internalType": "uint256",
          "name": "",
          "type": "uint256"
        }
      ],
      "stateMutability": "view",
      "type": "function"
    },
    {
      "inputs": [
        {
          "internalType": "address",
          "name": "_spender",
          "type": "address"
        },
        {
          "internalType": "uint256",
          "name": "_value",
          "type": "uint256"
        }
      ],
      "name": "approve",
      "outputs": [
        {
          "internalType": "bool",
          "name": "success",
          "type": "bool"
        }
      ],
      "stateMutability": "nonpayable",
      "type": "function"
    },
    {
      "inputs": [
        {
          "internalType": "address",
          "name": "",
          "type": "address"
        }
      ],
      "name": "balanceOf",
      "outputs": [
        {
          "internalType": "uint256",
          "name": "",
          "type": "uint256"
        }
      ],
      "stateMutability": "view",
      "type": "function"
    },
    {
      "inputs": [],
      "name": "decimals",
      "outputs": [
        {
          "internalType": "uint8",
          "name": "",
          "type": "uint8"
        }
      ],
      "stateMutability": "view",
      "type": "function"
    },
    {
      "inputs": [],
      "name": "getHoldersList",
      "outputs": [
        {
          "internalType": "address[]",
          "name": "holders",
          "type": "address[]"
        }
      ],
      "stateMutability": "view",
      "type": "function"
    },
    {
      "inputs": [],
      "name": "getInfo",
      "outputs": [
        {
          "components": [
            {
              "internalType": "uint256",
              "name": "userId",
              "type": "uint256"
            },
            {
              "internalType": "address",
              "name": "From",
              "type": "address"
            },
            {
              "internalType": "address",
              "name": "TO",
              "type": "address"
            },
            {
              "internalType": "uint256",
              "name": "Ammount",
              "type": "uint256"
            },
            {
              "internalType": "bool",
              "name": "TokenHodl",
              "type": "bool"
            }
          ],
          "internalType": "struct Token.TokenHolderInfo[]",
          "name": "",
          "type": "tuple[]"
        }
      ],
      "stateMutability": "view",
      "type": "function"
    },
    {
      "inputs": [],
      "name": "name",
      "outputs": [
        {
          "internalType": "string",
          "name": "",
          "type": "string"
        }
      ],
      "stateMutability": "view",
      "type": "function"
    },
    {
      "inputs": [],
      "name": "symbol",
      "outputs": [
        {
          "internalType": "string",
          "name": "",
          "type": "string"
        }
      ],
      "stateMutability": "view",
      "type": "function"
    },
    {
      "inputs": [],
      "name": "totalSupply",
      "outputs": [
        {
          "internalType": "uint256",
          "name": "",
          "type": "uint256"
        }
      ],
      "stateMutability": "view",
      "type": "function"
    },
    {
      "inputs": [
        {
          "internalType": "address",
          "name": "_to",
          "type": "address"
        },
        {
          "internalType": "uint256",
          "name": "_value",
          "type": "uint256"
        }
      ],
      "name": "transfer",
      "outputs": [
        {
          "internalType": "bool",
          "name": "success",
          "type": "bool"
        }
      ],
      "stateMutability": "nonpayable",
      "type": "function"
    },
    {
      "inputs": [
        {
          "internalType": "address",
          "name": "_from",
          "type": "address"
        },
        {
          "internalType": "address",
          "name": "_to",
          "type": "address"
        },
        {
          "internalType": "uint256",
          "name": "_value",
          "type": "uint256"
        }
      ],
      "name": "transferFrom",
      "outputs": [
        {
          "internalType": "bool",
          "name": "success",
          "type": "bool"
        }
      ],
      "stateMutability": "nonpayable",
      "type": "function"
    },
    {
      "inputs": [],
      "name": "userID",
      "outputs": [
        {
          "internalType": "uint256",
          "name": "",
          "type": "uint256"
        }
      ],
      "stateMutability": "view",
      "type": "function"
    }
  ],
  "bytecode": "0x60806040526040518060400160405280600881526020017f506f64546f6b656e000000000000000000000000000000000000000000000000815250600090816200004a91906200041a565b506040518060400160405280600481526020017f506f647300000000000000000000000000000000000000000000000000000000815250600190816200009191906200041a565b506012600260006101000a81548160ff021916908360ff160217905550348015620000bb57600080fd5b506040516200209f3803806200209f8339818101604052810190620000e1919062000537565b600260009054906101000a900460ff16600a620000ff9190620006f9565b816200010c91906200074a565b600381905550600354600760003373ffffffffffffffffffffffffffffffffffffffff1673ffffffffffffffffffffffffffffffffffffffff1681526020019081526020016000208190555033600460006101000a81548173ffffffffffffffffffffffffffffffffffffffff021916908373ffffffffffffffffffffffffffffffffffffffff1602179055505062000795565b600081519050919050565b7f4e487b7100000000000000000000000000000000000000000000000000000000600052604160045260246000fd5b7f4e487b7100000000000000000000000000000000000000000000000000000000600052602260045260246000fd5b600060028204905060018216806200022257607f821691505b602082108103620002385762000237620001da565b5b50919050565b60008190508160005260206000209050919050565b60006020601f8301049050919050565b600082821b905092915050565b600060088302620002a27fffffffffffffffffffffffffffffffffffffffffffffffffffffffffffffffff8262000263565b620002ae868362000263565b95508019841693508086168417925050509392505050565b6000819050919050565b6000819050919050565b6000620002fb620002f5620002ef84620002c6565b620002d0565b620002c6565b9050919050565b6000819050919050565b6200031783620002da565b6200032f620003268262000302565b84845462000270565b825550505050565b600090565b6200034662000337565b620003538184846200030c565b505050565b5b818110156200037b576200036f6000826200033c565b60018101905062000359565b5050565b601f821115620003ca5762000394816200023e565b6200039f8462000253565b81016020851015620003af578190505b620003c7620003be8562000253565b83018262000358565b50505b505050565b600082821c905092915050565b6000620003ef60001984600802620003cf565b1980831691505092915050565b60006200040a8383620003dc565b9150826002028217905092915050565b6200042582620001a0565b67ffffffffffffffff811115620004415762000440620001ab565b5b6200044d825462000209565b6200045a8282856200037f565b600060209050601f8311600181146200049257600084156200047d578287015190505b620004898582620003fc565b865550620004f9565b601f198416620004a2866200023e565b60005b82811015620004cc57848901518255600182019150602085019450602081019050620004a5565b86831015620004ec5784890151620004e8601f891682620003dc565b8355505b6001600288020188555050505b505050505050565b600080fd5b6200051181620002c6565b81146200051d57600080fd5b50565b600081519050620005318162000506565b92915050565b60006020828403121562000550576200054f62000501565b5b6000620005608482850162000520565b91505092915050565b7f4e487b7100000000000000000000000000000000000000000000000000000000600052601160045260246000fd5b60008160011c9050919050565b6000808291508390505b6001851115620005f757808604811115620005cf57620005ce62000569565b5b6001851615620005df5780820291505b8081029050620005ef8562000598565b9450620005af565b94509492505050565b600082620006125760019050620006e5565b81620006225760009050620006e5565b81600181146200063b576002811462000646576200067c565b6001915050620006e5565b60ff8411156200065b576200065a62000569565b5b8360020a91508482111562000675576200067462000569565b5b50620006e5565b5060208310610133831016604e8410600b8410161715620006b65782820a905083811115620006b057620006af62000569565b5b620006e5565b620006c58484846001620005a5565b92509050818404811115620006df57620006de62000569565b5b81810290505b9392505050565b600060ff82169050919050565b60006200070682620002c6565b91506200071383620006ec565b9250620007427fffffffffffffffffffffffffffffffffffffffffffffffffffffffffffffffff848462000600565b905092915050565b60006200075782620002c6565b91506200076483620002c6565b92508282026200077481620002c6565b915082820484148315176200078e576200078d62000569565b5b5092915050565b6118fa80620007a56000396000f3fe608060405234801561001057600080fd5b50600436106100ea5760003560e01c806370a082311161008c578063a21f036811610066578063a21f036814610251578063a9059cbb14610285578063dd62ed3e146102b5578063e302418a146102e5576100ea565b806370a08231146101e557806391500c881461021557806395d89b4114610233576100ea565b806323b872dd116100c857806323b872dd1461015b578063313ce5671461018b5780635a9b0b89146101a957806367a0640b146101c7576100ea565b806306fdde03146100ef578063095ea7b31461010d57806318160ddd1461013d575b600080fd5b6100f7610303565b60405161010491906111e6565b60405180910390f35b610127600480360381019061012291906112a1565b610391565b60405161013491906112fc565b60405180910390f35b610145610483565b6040516101529190611326565b60405180910390f35b61017560048036038101906101709190611341565b610489565b60405161018291906112fc565b60405180910390f35b610193610987565b6040516101a091906113b0565b60405180910390f35b6101b161099a565b6040516101be919061150f565b60405180910390f35b6101cf610ad4565b6040516101dc9190611540565b60405180910390f35b6101ff60048036038101906101fa919061155b565b610afa565b60405161020c9190611326565b60405180910390f35b61021d610b12565b60405161022a9190611637565b60405180910390f35b61023b610ba0565b60405161024891906111e6565b60405180910390f35b61026b60048036038101906102669190611659565b610c2e565b60405161027c959493929190611686565b60405180910390f35b61029f600480360381019061029a91906112a1565b610cc1565b6040516102ac91906112fc565b60405180910390f35b6102cf60048036038101906102ca91906116d9565b61112b565b6040516102dc9190611326565b60405180910390f35b6102ed611150565b6040516102fa9190611326565b60405180910390f35b6000805461031090611748565b80601f016020809104026020016040519081016040528092919081815260200182805461033c90611748565b80156103895780601f1061035e57610100808354040283529160200191610389565b820191906000526020600020905b81548152906001019060200180831161036c57829003601f168201915b505050505081565b600081600860003373ffffffffffffffffffffffffffffffffffffffff1673ffffffffffffffffffffffffffffffffffffffff16815260200190815260200160002060008573ffffffffffffffffffffffffffffffffffffffff1673ffffffffffffffffffffffffffffffffffffffff168152602001908152602001600020819055508273ffffffffffffffffffffffffffffffffffffffff163373ffffffffffffffffffffffffffffffffffffffff167f8c5be1e5ebec7d5bd14f71427d1e84f3dd0314c0f7b2291e5b200ac8c7c3b925846040516104719190611326565b60405180910390a36001905092915050565b60035481565b600081600760008673ffffffffffffffffffffffffffffffffffffffff1673ffffffffffffffffffffffffffffffffffffffff16815260200190815260200160002054101561050d576040517f08c379a0000000000000000000000000000000000000000000000000000000008152600401610504906117c5565b60405180910390fd5b81600760008673ffffffffffffffffffffffffffffffffffffffff1673ffffffffffffffffffffffffffffffffffffffff168152602001908152602001600020600082825461055c9190611814565b9250508190555081600760008573ffffffffffffffffffffffffffffffffffffffff1673ffffffffffffffffffffffffffffffffffffffff16815260200190815260200160002060008282546105b29190611848565b9250508190555081600860008673ffffffffffffffffffffffffffffffffffffffff1673ffffffffffffffffffffffffffffffffffffffff16815260200190815260200160002060003373ffffffffffffffffffffffffffffffffffffffff1673ffffffffffffffffffffffffffffffffffffffff16815260200190815260200160002060008282546106459190611814565b925050819055506000600660008573ffffffffffffffffffffffffffffffffffffffff1673ffffffffffffffffffffffffffffffffffffffff1681526020019081526020016000209050600015158160040160009054906101000a900460ff16151503610710576009849080600181540180825580915050600190039060005260206000200160009091909190916101000a81548173ffffffffffffffffffffffffffffffffffffffff021916908373ffffffffffffffffffffffffffffffffffffffff1602179055505b60056000815461071f9061187c565b9190508190558160000181905550338160010160006101000a81548173ffffffffffffffffffffffffffffffffffffffff021916908373ffffffffffffffffffffffffffffffffffffffff160217905550838160020160006101000a81548173ffffffffffffffffffffffffffffffffffffffff021916908373ffffffffffffffffffffffffffffffffffffffff16021790555082816003018190555060018160040160006101000a81548160ff021916908315150217905550600a819080600181540180825580915050600190039060005260206000209060050201600090919091909150600082015481600001556001820160009054906101000a900473ffffffffffffffffffffffffffffffffffffffff168160010160006101000a81548173ffffffffffffffffffffffffffffffffffffffff021916908373ffffffffffffffffffffffffffffffffffffffff1602179055506002820160009054906101000a900473ffffffffffffffffffffffffffffffffffffffff168160020160006101000a81548173ffffffffffffffffffffffffffffffffffffffff021916908373ffffffffffffffffffffffffffffffffffffffff160217905550600382015481600301556004820160009054906101000a900460ff168160040160006101000a81548160ff02191690831515021790555050508373ffffffffffffffffffffffffffffffffffffffff163373ffffffffffffffffffffffffffffffffffffffff167fddf252ad1be2c89b69c2b068fc378daa952ba7f163c4a11628f55a4df523b3ef856040516109739190611326565b60405180910390a360019150509392505050565b600260009054906101000a900460ff1681565b6060600a805480602002602001604051908101604052809291908181526020016000905b82821015610acb57838290600052602060002090600502016040518060a0016040529081600082015481526020016001820160009054906101000a900473ffffffffffffffffffffffffffffffffffffffff1673ffffffffffffffffffffffffffffffffffffffff1673ffffffffffffffffffffffffffffffffffffffff1681526020016002820160009054906101000a900473ffffffffffffffffffffffffffffffffffffffff1673ffffffffffffffffffffffffffffffffffffffff1673ffffffffffffffffffffffffffffffffffffffff168152602001600382015481526020016004820160009054906101000a900460ff161515151581525050815260200190600101906109be565b50505050905090565b600460009054906101000a900473ffffffffffffffffffffffffffffffffffffffff1681565b60076020528060005260406000206000915090505481565b60606009805480602002602001604051908101604052809291908181526020018280548015610b9657602002820191906000526020600020905b8160009054906101000a900473ffffffffffffffffffffffffffffffffffffffff1673ffffffffffffffffffffffffffffffffffffffff1681526020019060010190808311610b4c575b5050505050905090565b60018054610bad90611748565b80601f0160208091040260200160405190810160405280929190818152602001828054610bd990611748565b8015610c265780601f10610bfb57610100808354040283529160200191610c26565b820191906000526020600020905b815481529060010190602001808311610c0957829003601f168201915b505050505081565b600a8181548110610c3e57600080fd5b90600052602060002090600502016000915090508060000154908060010160009054906101000a900473ffffffffffffffffffffffffffffffffffffffff16908060020160009054906101000a900473ffffffffffffffffffffffffffffffffffffffff16908060030154908060040160009054906101000a900460ff16905085565b600081600760003373ffffffffffffffffffffffffffffffffffffffff1673ffffffffffffffffffffffffffffffffffffffff168152602001908152602001600020541015610d45576040517f08c379a0000000000000000000000000000000000000000000000000000000008152600401610d3c906117c5565b60405180910390fd5b81600760003373ffffffffffffffffffffffffffffffffffffffff1673ffffffffffffffffffffffffffffffffffffffff1681526020019081526020016000206000828254610d949190611814565b9250508190555081600760008573ffffffffffffffffffffffffffffffffffffffff1673ffffffffffffffffffffffffffffffffffffffff1681526020019081526020016000206000828254610dea9190611848565b925050819055506000600660008573ffffffffffffffffffffffffffffffffffffffff1673ffffffffffffffffffffffffffffffffffffffff1681526020019081526020016000209050600015158160040160009054906101000a900460ff16151503610eb5576009849080600181540180825580915050600190039060005260206000200160009091909190916101000a81548173ffffffffffffffffffffffffffffffffffffffff021916908373ffffffffffffffffffffffffffffffffffffffff1602179055505b600560008154610ec49061187c565b9190508190558160000181905550338160010160006101000a81548173ffffffffffffffffffffffffffffffffffffffff021916908373ffffffffffffffffffffffffffffffffffffffff160217905550838160020160006101000a81548173ffffffffffffffffffffffffffffffffffffffff021916908373ffffffffffffffffffffffffffffffffffffffff16021790555082816003018190555060018160040160006101000a81548160ff021916908315150217905550600a819080600181540180825580915050600190039060005260206000209060050201600090919091909150600082015481600001556001820160009054906101000a900473ffffffffffffffffffffffffffffffffffffffff168160010160006101000a81548173ffffffffffffffffffffffffffffffffffffffff021916908373ffffffffffffffffffffffffffffffffffffffff1602179055506002820160009054906101000a900473ffffffffffffffffffffffffffffffffffffffff168160020160006101000a81548173ffffffffffffffffffffffffffffffffffffffff021916908373ffffffffffffffffffffffffffffffffffffffff160217905550600382015481600301556004820160009054906101000a900460ff168160040160006101000a81548160ff02191690831515021790555050508373ffffffffffffffffffffffffffffffffffffffff163373ffffffffffffffffffffffffffffffffffffffff167fddf252ad1be2c89b69c2b068fc378daa952ba7f163c4a11628f55a4df523b3ef856040516111189190611326565b60405180910390a3600191505092915050565b6008602052816000526040600020602052806000526040600020600091509150505481565b60055481565b600081519050919050565b600082825260208201905092915050565b60005b83811015611190578082015181840152602081019050611175565b60008484015250505050565b6000601f19601f8301169050919050565b60006111b882611156565b6111c28185611161565b93506111d2818560208601611172565b6111db8161119c565b840191505092915050565b6000602082019050818103600083015261120081846111ad565b905092915050565b600080fd5b600073ffffffffffffffffffffffffffffffffffffffff82169050919050565b60006112388261120d565b9050919050565b6112488161122d565b811461125357600080fd5b50565b6000813590506112658161123f565b92915050565b6000819050919050565b61127e8161126b565b811461128957600080fd5b50565b60008135905061129b81611275565b92915050565b600080604083850312156112b8576112b7611208565b5b60006112c685828601611256565b92505060206112d78582860161128c565b9150509250929050565b60008115159050919050565b6112f6816112e1565b82525050565b600060208201905061131160008301846112ed565b92915050565b6113208161126b565b82525050565b600060208201905061133b6000830184611317565b92915050565b60008060006060848603121561135a57611359611208565b5b600061136886828701611256565b935050602061137986828701611256565b925050604061138a8682870161128c565b9150509250925092565b600060ff82169050919050565b6113aa81611394565b82525050565b60006020820190506113c560008301846113a1565b92915050565b600081519050919050565b600082825260208201905092915050565b6000819050602082019050919050565b6114008161126b565b82525050565b61140f8161122d565b82525050565b61141e816112e1565b82525050565b60a08201600082015161143a60008501826113f7565b50602082015161144d6020850182611406565b5060408201516114606040850182611406565b50606082015161147360608501826113f7565b5060808201516114866080850182611415565b50505050565b60006114988383611424565b60a08301905092915050565b6000602082019050919050565b60006114bc826113cb565b6114c681856113d6565b93506114d1836113e7565b8060005b838110156115025781516114e9888261148c565b97506114f4836114a4565b9250506001810190506114d5565b5085935050505092915050565b6000602082019050818103600083015261152981846114b1565b905092915050565b61153a8161122d565b82525050565b60006020820190506115556000830184611531565b92915050565b60006020828403121561157157611570611208565b5b600061157f84828501611256565b91505092915050565b600081519050919050565b600082825260208201905092915050565b6000819050602082019050919050565b60006115c08383611406565b60208301905092915050565b6000602082019050919050565b60006115e482611588565b6115ee8185611593565b93506115f9836115a4565b8060005b8381101561162a57815161161188826115b4565b975061161c836115cc565b9250506001810190506115fd565b5085935050505092915050565b6000602082019050818103600083015261165181846115d9565b905092915050565b60006020828403121561166f5761166e611208565b5b600061167d8482850161128c565b91505092915050565b600060a08201905061169b6000830188611317565b6116a86020830187611531565b6116b56040830186611531565b6116c26060830185611317565b6116cf60808301846112ed565b9695505050505050565b600080604083850312156116f0576116ef611208565b5b60006116fe85828601611256565b925050602061170f85828601611256565b9150509250929050565b7f4e487b7100000000000000000000000000000000000000000000000000000000600052602260045260246000fd5b6000600282049050600182168061176057607f821691505b60208210810361177357611772611719565b5b50919050565b7f696e7375666669656e742062616c616e63650000000000000000000000000000600082015250565b60006117af601283611161565b91506117ba82611779565b602082019050919050565b600060208201905081810360008301526117de816117a2565b9050919050565b7f4e487b7100000000000000000000000000000000000000000000000000000000600052601160045260246000fd5b600061181f8261126b565b915061182a8361126b565b9250828203905081811115611842576118416117e5565b5b92915050565b60006118538261126b565b915061185e8361126b565b9250828201905080821115611876576118756117e5565b5b92915050565b60006118878261126b565b91507fffffffffffffffffffffffffffffffffffffffffffffffffffffffffffffffff82036118b9576118b86117e5565b5b60018201905091905056fea26469706673582212203661e3cc11eb199abd0455b977fd61b32b06579409b9af5b504cf789f3732ffa64736f6c63430008120033",
  "linkReferences": {},
  "deployedLinkReferences": {}
}